{
  "id": "a2e62439-b65b-43dd-9513-d03bd0623100",
  "type": "on",
  "currentPhase": "fundEphemeral",
  "unsignedTxs": [
    {
      "tx_data": "0x690104670b03010100b92003000101008642e4dfddf4bfec4470cea8d82e4386e7d368d252ce230216751fb1d1dfeb6e0304000002046e0300feb25f3fddad13f82c4d6dbc1481516f6223642900130000a138149b391f0000000000",
      "phase": "moonbeamToPendulumXcm",
      "network": "moonbeam",
      "nonce": 0,
      "signer": "0xdA22f42879f810c9dAf0e7CCf3Be7f7098f272eB"
    },
    {
      "tx_data": {
        "to": "0xca01a1d0993565291051daff390892518acfad3a",
        "data": "0x095ea7b3000000000000000000000000ce16f69375520ab01377ce7b88f5ba8c48f8d6660000000000000000000000000000000000000000000000000000000000113e10",
        "value": "0",
        "nonce": 1,
        "gas": "150000",
        "maxFeePerGas": "37500000000"
      },
      "phase": "squidrouterApprove",
      "network": "moonbeam",
      "nonce": 1,
      "signer": "0xdA22f42879f810c9dAf0e7CCf3Be7f7098f272eB"
    },
    {
      "tx_data": {
        "to": "0xce16F69375520ab01377ce7B88f5BA8C48F8D666",
        "data": "0x2147796000000000000000000000000000000000000000000000000000000000000000e00000000000000000000000000000000000000000000000000000000000113e100000000000000000000000000000000000000000000000000000000000000120000000000000000000000000000000000000000000000000000000000000016000000000000000000000000000000000000000000000000000000000000001c0000000000000000000000000da22f42879f810c9daf0e7ccf3be7f7098f272eb0000000000000000000000000000000000000000000000000000000000000001000000000000000000000000000000000000000000000000000000000000000761786c55534443000000000000000000000000000000000000000000000000000000000000000000000000000000000000000000000000000000000000000007506f6c79676f6e00000000000000000000000000000000000000000000000000000000000000000000000000000000000000000000000000000000000000002a3078636531364636393337353532306162303133373763653742383866354241384334384638443636360000000000000000000000000000000000000000000000000000000000000000000000000000000000000000000000000000000005700000000000000000000000000000000000000000000000000000000000000040000000000000000000000000da22f42879f810c9daf0e7ccf3be7f7098f272eb00000000000000000000000000000000000000000000000000000000000000030000000000000000000000000000000000000000000000000000000000000060000000000000000000000000000000000000000000000000000000000000016000000000000000000000000000000000000000000000000000000000000002e000000000000000000000000000000000000000000000000000000000000000030000000000000000000000000000000000000000000000000000000000000000000000000000000000000000000000000000000000000000000000000000000000000000000000000000000000000000000000000000000000000000000000a000000000000000000000000000000000000000000000000000000000000000c000000000000000000000000000000000000000000000000000000000000000000000000000000000000000000000000000000000000000000000000000000020000000000000000000000000750e4c4984a9e0f12978ea6742bc1c5d248f40ed0000000000000000000000000000000000000000000000000000000000000000000000000000000000000000750e4c4984a9e0f12978ea6742bc1c5d248f40ed000000000000000000000000000000000000000000000000000000000000000000000000000000000000000000000000000000000000000000000000000000a000000000000000000000000000000000000000000000000000000000000001200000000000000000000000000000000000000000000000000000000000000044095ea7b3000000000000000000000000f5b509bb0909a69b1c207e495f687a596c168e12ffffffffffffffffffffffffffffffffffffffffffffffffffffffffffffffff000000000000000000000000000000000000000000000000000000000000000000000000000000000000000000000000000000000000000000000040000000000000000000000000750e4c4984a9e0f12978ea6742bc1c5d248f40ed00000000000000000000000000000000000000000000000000000000000000010000000000000000000000000000000000000000000000000000000000000001000000000000000000000000f5b509bb0909a69b1c207e495f687a596c168e12000000000000000000000000000000000000000000000000000000000000000000000000000000000000000000000000000000000000000000000000000000a000000000000000000000000000000000000000000000000000000000000001c000000000000000000000000000000000000000000000000000000000000000e4bc651188000000000000000000000000750e4c4984a9e0f12978ea6742bc1c5d248f40ed0000000000000000000000003c499c542cef5e3811e1192ce70d8cc03d5c3359000000000000000000000000da22f42879f810c9daf0e7ccf3be7f7098f272eb0000000000000000000000000000000000000000000000000000019611f3628b0000000000000000000000000000000000000000000000000000000000113e10000000000000000000000000000000000000000000000000000000000011379b0000000000000000000000000000000000000000000000000000000000000000000000000000000000000000000000000000000000000000000000000000000000000000000000000000000000000000000000000000000000000040000000000000000000000000750e4c4984a9e0f12978ea6742bc1c5d248f40ed00000000000000000000000000000000000000000000000000000000000000042b280eeeb46b9209ff63a4c098083fa6000000000000000000000000000000002b280eeeb46b9209ff63a4c098083fa6",
        "value": "1474094321102779379",
        "gas": "1140000",
        "maxFeePerGas": "37500000000",
        "nonce": 2
      },
      "phase": "squidrouterSwap",
      "network": "moonbeam",
      "nonce": 2,
      "signer": "0xdA22f42879f810c9dAf0e7CCf3Be7f7098f272eB"
    },
    {
      "tx_data": "0xd9010438060093dfde426795690be15b2071741d6538cd265eb673a9e9a1ae4e4389fda96a62000757318c4c02ce800200001101095ea7b3e0a5f34199e165cbd3f9b0eba1f5e15d5018a7ffe8b76a3693ba5b317efb09d800002cf61a24a229000000000000000000000000000000000000000000000000",
      "phase": "nablaApprove",
      "network": "pendulum",
      "nonce": 0,
      "signer": "5F6k9PMKmPmDpn5LH4GwghHS9iDnjCLTVXBBLWHEop7worfL"
    },
    {
      "tx_data": "0xdd0304380600e0a5f34199e165cbd3f9b0eba1f5e15d5018a7ffe8b76a3693ba5b317efb09d80007003a9a535082584f0000150338ed173900002cf61a24a22900000000000000000000000000000000000000000000000001000000000000000000000000000000000000000000000000000000000000000893dfde426795690be15b2071741d6538cd265eb673a9e9a1ae4e4389fda96a6290573e0b663336bc844ddd1293af95b0b1872f2677f93e11cc658fafddc58db98642e4dfddf4bfec4470cea8d82e4386e7d368d252ce230216751fb1d1dfeb6eb76cfd6700000000000000000000000000000000000000000000000000000000",
      "phase": "nablaSwap",
      "network": "pendulum",
      "nonce": 0,
      "signer": "5F6k9PMKmPmDpn5LH4GwghHS9iDnjCLTVXBBLWHEop7worfL"
    },
    {
      "tx_data": "0xd1010433020c35010056d9583bf0369fff4a35d997b2b5f5997843311823b1aa88fe9661874984e647010d0035010056d9583bf0369fff4a35d997b2b5f5997843311823b1aa88fe9661874984e647010c000a040056d9583bf0369fff4a35d997b2b5f5997843311823b1aa88fe9661874984e64700",
      "phase": "pendulumCleanup",
      "network": "pendulum",
      "nonce": 3,
      "signer": "5F6k9PMKmPmDpn5LH4GwghHS9iDnjCLTVXBBLWHEop7worfL"
    },
    {
      "tx_data": "0x250104360408010c103e110000000000000000000000000001060000c52ebca2b10000000000000000000100000001010200511f0300da22f42879f810c9daf0e7ccf3be7f7098f272eb00",
      "phase": "pendulumToMoonbeam",
      "network": "pendulum",
      "nonce": 2,
      "signer": "5F6k9PMKmPmDpn5LH4GwghHS9iDnjCLTVXBBLWHEop7worfL"
    }
  ],
  "presignedTxs": [
    {
      "tx_data": "0x710384008642e4dfddf4bfec4470cea8d82e4386e7d368d252ce230216751fb1d1dfeb6e0188a327f7b89d5cdb07cc25910e9c7a9ea6ad60635ea7aafc15dab44219787034c3a88ad2a173d2831fd1a4f190a27937beb79520cf07dc7cd890763a1fe82d800000000038060093dfde426795690be15b2071741d6538cd265eb673a9e9a1ae4e4389fda96a62000757318c4c02ce800200001101095ea7b3e0a5f34199e165cbd3f9b0eba1f5e15d5018a7ffe8b76a3693ba5b317efb09d800002cf61a24a229000000000000000000000000000000000000000000000000",
      "phase": "nablaApprove",
      "network": "pendulum",
      "nonce": 0,
      "signer": "5F6k9PMKmPmDpn5LH4GwghHS9iDnjCLTVXBBLWHEop7worfL"
    },
    {
      "tx_data": "0x750584008642e4dfddf4bfec4470cea8d82e4386e7d368d252ce230216751fb1d1dfeb6e013621b47acaf4a555c8f92b2adf4746358e3a35e40e8c3cecdc4993ea9fd6623478976ff951887b8763d9f64fcfbdd3f2f45afa584b8ff00eeba6ac5a2e86508300000000380600e0a5f34199e165cbd3f9b0eba1f5e15d5018a7ffe8b76a3693ba5b317efb09d80007003a9a535082584f0000150338ed173900002cf61a24a22900000000000000000000000000000000000000000000000001000000000000000000000000000000000000000000000000000000000000000893dfde426795690be15b2071741d6538cd265eb673a9e9a1ae4e4389fda96a6290573e0b663336bc844ddd1293af95b0b1872f2677f93e11cc658fafddc58db98642e4dfddf4bfec4470cea8d82e4386e7d368d252ce230216751fb1d1dfeb6eb76cfd6700000000000000000000000000000000000000000000000000000000",
      "phase": "nablaSwap",
      "network": "pendulum",
      "nonce": 0,
      "signer": "5F6k9PMKmPmDpn5LH4GwghHS9iDnjCLTVXBBLWHEop7worfL"
    },
    {
      "tx_data": "0x690384008642e4dfddf4bfec4470cea8d82e4386e7d368d252ce230216751fb1d1dfeb6e01d2d4f269fb529047534dbd722e47dadfa9b8152802abfc2da5b0310a1448d240fe9d3d94b7b48a0c674474e4edbdd3c00f0808c622fea7715944494dfa9d3d81000c000033020c35010056d9583bf0369fff4a35d997b2b5f5997843311823b1aa88fe9661874984e647010d0035010056d9583bf0369fff4a35d997b2b5f5997843311823b1aa88fe9661874984e647010c000a040056d9583bf0369fff4a35d997b2b5f5997843311823b1aa88fe9661874984e64700",
      "phase": "pendulumCleanup",
      "network": "pendulum",
      "nonce": 3,
      "signer": "5F6k9PMKmPmDpn5LH4GwghHS9iDnjCLTVXBBLWHEop7worfL"
    },
    {
      "tx_data": "0xbd0284008642e4dfddf4bfec4470cea8d82e4386e7d368d252ce230216751fb1d1dfeb6e01fc7e82afc1e15722bd9f6947e26e4338eb70fb430535f082f4f56227fa8ef038a77b70cadbde9a28a6ce719ddacdc13e8ba0fb76aff49e9c9500c3df8a02e48400080000360408010c103e110000000000000000000000000001060000c52ebca2b10000000000000000000100000001010200511f0300da22f42879f810c9daf0e7ccf3be7f7098f272eb00",
      "phase": "pendulumToMoonbeam",
      "network": "pendulum",
      "nonce": 2,
      "signer": "5F6k9PMKmPmDpn5LH4GwghHS9iDnjCLTVXBBLWHEop7worfL"
    },
    {
      "tx_data": "0xcd0284da22f42879f810c9daf0e7ccf3be7f7098f272ebe8d3b9983b1e6b32f90572e02a2baece9193eaab425f9087519f8a28ebb3078819c3399fe59597ae75572a815d64612059dfa485ed1cbc9982ec19baa3052ac60000000000670b03010100b92003000101008642e4dfddf4bfec4470cea8d82e4386e7d368d252ce230216751fb1d1dfeb6e0304000002046e0300feb25f3fddad13f82c4d6dbc1481516f6223642900130000a138149b391f0000000000",
      "phase": "moonbeamToPendulumXcm",
      "network": "moonbeam",
      "nonce": 0,
      "signer": "0xdA22f42879f810c9dAf0e7CCf3Be7f7098f272eB"
    },
    {
      "tx_data": "0x02f8af82050401808508bb2c9700830249f094ca01a1d0993565291051daff390892518acfad3a80b844095ea7b3000000000000000000000000ce16f69375520ab01377ce7b88f5ba8c48f8d6660000000000000000000000000000000000000000000000000000000000113e10c080a08f3f6dde99e6bda30bf967a7d7066cc98e6db17d016e7dfc9f5b1e277ee813b7a01677ecc30e50d1d01645fadc51212fff16f781cfcd994917c3728387b7088272",
      "phase": "squidrouterApprove",
      "network": "moonbeam",
      "nonce": 1,
      "signer": "0xdA22f42879f810c9dAf0e7CCf3Be7f7098f272eB"
    },
    {
      "tx_data": "0x02f907e882050402808508bb2c97008311652094ce16f69375520ab01377ce7b88f5ba8c48f8d66688147508f996c073f3b907742147796000000000000000000000000000000000000000000000000000000000000000e00000000000000000000000000000000000000000000000000000000000113e100000000000000000000000000000000000000000000000000000000000000120000000000000000000000000000000000000000000000000000000000000016000000000000000000000000000000000000000000000000000000000000001c0000000000000000000000000da22f42879f810c9daf0e7ccf3be7f7098f272eb0000000000000000000000000000000000000000000000000000000000000001000000000000000000000000000000000000000000000000000000000000000761786c55534443000000000000000000000000000000000000000000000000000000000000000000000000000000000000000000000000000000000000000007506f6c79676f6e00000000000000000000000000000000000000000000000000000000000000000000000000000000000000000000000000000000000000002a3078636531364636393337353532306162303133373763653742383866354241384334384638443636360000000000000000000000000000000000000000000000000000000000000000000000000000000000000000000000000000000005700000000000000000000000000000000000000000000000000000000000000040000000000000000000000000da22f42879f810c9daf0e7ccf3be7f7098f272eb00000000000000000000000000000000000000000000000000000000000000030000000000000000000000000000000000000000000000000000000000000060000000000000000000000000000000000000000000000000000000000000016000000000000000000000000000000000000000000000000000000000000002e000000000000000000000000000000000000000000000000000000000000000030000000000000000000000000000000000000000000000000000000000000000000000000000000000000000000000000000000000000000000000000000000000000000000000000000000000000000000000000000000000000000000000a000000000000000000000000000000000000000000000000000000000000000c000000000000000000000000000000000000000000000000000000000000000000000000000000000000000000000000000000000000000000000000000000020000000000000000000000000750e4c4984a9e0f12978ea6742bc1c5d248f40ed0000000000000000000000000000000000000000000000000000000000000000000000000000000000000000750e4c4984a9e0f12978ea6742bc1c5d248f40ed000000000000000000000000000000000000000000000000000000000000000000000000000000000000000000000000000000000000000000000000000000a000000000000000000000000000000000000000000000000000000000000001200000000000000000000000000000000000000000000000000000000000000044095ea7b3000000000000000000000000f5b509bb0909a69b1c207e495f687a596c168e12ffffffffffffffffffffffffffffffffffffffffffffffffffffffffffffffff000000000000000000000000000000000000000000000000000000000000000000000000000000000000000000000000000000000000000000000040000000000000000000000000750e4c4984a9e0f12978ea6742bc1c5d248f40ed00000000000000000000000000000000000000000000000000000000000000010000000000000000000000000000000000000000000000000000000000000001000000000000000000000000f5b509bb0909a69b1c207e495f687a596c168e12000000000000000000000000000000000000000000000000000000000000000000000000000000000000000000000000000000000000000000000000000000a000000000000000000000000000000000000000000000000000000000000001c000000000000000000000000000000000000000000000000000000000000000e4bc651188000000000000000000000000750e4c4984a9e0f12978ea6742bc1c5d248f40ed0000000000000000000000003c499c542cef5e3811e1192ce70d8cc03d5c3359000000000000000000000000da22f42879f810c9daf0e7ccf3be7f7098f272eb0000000000000000000000000000000000000000000000000000019611f3628b0000000000000000000000000000000000000000000000000000000000113e10000000000000000000000000000000000000000000000000000000000011379b0000000000000000000000000000000000000000000000000000000000000000000000000000000000000000000000000000000000000000000000000000000000000000000000000000000000000000000000000000000000000040000000000000000000000000750e4c4984a9e0f12978ea6742bc1c5d248f40ed00000000000000000000000000000000000000000000000000000000000000042b280eeeb46b9209ff63a4c098083fa6000000000000000000000000000000002b280eeeb46b9209ff63a4c098083fa6c080a014516223957c676c0ba2e37532f95705de6d3a43577877cb7ec414dc3996b871a01acd8649c5a6f8995dd5aea14cb5a4cb650d2726959c433b3c9ac47d16e8f4e6",
      "phase": "squidrouterSwap",
      "network": "moonbeam",
      "nonce": 2,
      "signer": "0xdA22f42879f810c9dAf0e7CCf3Be7f7098f272eB"
    }
  ],
  "from": "pix",
  "to": "polygon",
  "state": {
    "inputAmount": "3",
    "inputCurrency": "brl",
    "outputAmount": "0.38",
    "outputCurrency": "usdc",
    "walletAddress": "0x30a300612ab372CC73e53ffE87fB73d62Ed68Da3",
    "taxId": "758.444.017-77",
    "destinationAddress": "0x7ba99e99bc669b3508aff9cc0a898e869459f877",
    "outputTokenType": "usdc",
    "inputTokenPendulumDetails": {
      "pendulumErc20WrapperAddress": "6eRq1yvty6KorGcJ3nKpNYrCBn9FQnzsBhFn4JmAFqWUwpnh",
      "pendulumCurrencyId": {
        "XCM": 13
      },
      "pendulumAssetSymbol": "BRLA",
      "pendulumDecimals": 18
    },
    "outputTokenPendulumDetails": {
      "pendulumErc20WrapperAddress": "6eMCHeByJ3m2yPsXFkezBfCQtMs3ymUPqtAyCA41mNWmbNJe",
      "pendulumCurrencyId": {
        "XCM": 12
      },
      "pendulumAssetSymbol": "USDC.axl",
      "pendulumDecimals": 6
    },
    "outputAmountBeforeFees": {
      "units": "1.13",
      "raw": "1130000"
    },
    "pendulumEphemeralAddress": "5F6k9PMKmPmDpn5LH4GwghHS9iDnjCLTVXBBLWHEop7worfL",
    "moonbeamEphemeralAddress": "0xdA22f42879f810c9dAf0e7CCf3Be7f7098f272eB",
    "inputAmountUnits": "2.25",
    "nablaSoftMinimumOutputRaw": "1107400000000000000",
    "inputAmountBeforeSwapRaw": "2250000000000000000"
  },
  "quoteId": "fe33f9ca-62e5-45c9-aa7a-15dc9d304f75",
  "phaseHistory": [
    {
      "phase": "initial",
      "timestamp": "2025-04-07T20:14:47.772Z"
    },
    {
      "phase": "fundEphemeral",
      "timestamp": "2025-04-07T20:14:51.551Z"
    },
    {
      "phase": "moonbeamToPendulumXcm",
      "timestamp": "2025-04-07T20:14:55.714Z"
    }
  ],
  "errorLogs": [
    {
      "phase": "initial",
      "timestamp": "2025-04-07T20:14:56.558Z",
      "error": "MoonbeamToPendulumXcmPhaseHandler: Failed to send XCM transaction",
      "details": "UnrecoverablePhaseError: MoonbeamToPendulumXcmPhaseHandler: Failed to send XCM transaction\n    at new PhaseError (/Users/gianni/root/Pendulum/vortexRepo/vortex/api/src/api/errors/phase-error.ts:6:5)\n    at new UnrecoverablePhaseError (/Users/gianni/root/Pendulum/vortexRepo/vortex/api/src/api/errors/phase-error.ts:20:5)\n    at <anonymous> (/Users/gianni/root/Pendulum/vortexRepo/vortex/api/src/api/services/phases/base-phase-handler.ts:63:17)\n    at processTicksAndRejections (native:7:39)",
      "recoverable": false,
      "isPhaseError": true
    }
  ],
  "createdAt": "2025-04-07T20:14:47.772Z",
  "updatedAt": "2025-04-07T20:14:47.772Z"
}