{
  "id": "d7f7ea74-2368-47c6-9da7-ef0e9bf1712c",
  "type": "on",
  "currentPhase": "fundEphemeral",
  "unsignedTxs": [
    {
      "tx_data": "0x690104670b03010100b920030001010096eac57a9ad925ba98e47033282b41b73cae0efa2d30bc4f5df1340570f04f690304000002046e0300feb25f3fddad13f82c4d6dbc1481516f6223642900130000a138149b391f0000000000",
      "phase": "moonbeamToPendulumXcm",
      "network": "moonbeam",
      "nonce": 0,
      "signer": "0x84c048F96784D40D0fC66E18FE37538C99666Cf5"
    },
    {
      "tx_data": {
        "to": "0xca01a1d0993565291051daff390892518acfad3a",
        "data": "0x095ea7b3000000000000000000000000ce16f69375520ab01377ce7b88f5ba8c48f8d6660000000000000000000000000000000000000000000000000000000000113e10",
        "value": "0",
        "nonce": 1,
        "gas": "150000",
        "maxFeePerGas": "37500000000"
      },
      "phase": "squidrouterApprove",
      "network": "moonbeam",
      "nonce": 1,
      "signer": "0x84c048F96784D40D0fC66E18FE37538C99666Cf5"
    },
    {
      "tx_data": {
        "to": "0xce16F69375520ab01377ce7B88f5BA8C48F8D666",
        "data": "0x2147796000000000000000000000000000000000000000000000000000000000000000e00000000000000000000000000000000000000000000000000000000000113e100000000000000000000000000000000000000000000000000000000000000120000000000000000000000000000000000000000000000000000000000000016000000000000000000000000000000000000000000000000000000000000001c000000000000000000000000084c048f96784d40d0fc66e18fe37538c99666cf50000000000000000000000000000000000000000000000000000000000000001000000000000000000000000000000000000000000000000000000000000000761786c55534443000000000000000000000000000000000000000000000000000000000000000000000000000000000000000000000000000000000000000007506f6c79676f6e00000000000000000000000000000000000000000000000000000000000000000000000000000000000000000000000000000000000000002a307863653136463639333735353230616230313337376365374238386635424138433438463844363636000000000000000000000000000000000000000000000000000000000000000000000000000000000000000000000000000000000570000000000000000000000000000000000000000000000000000000000000004000000000000000000000000084c048f96784d40d0fc66e18fe37538c99666cf500000000000000000000000000000000000000000000000000000000000000030000000000000000000000000000000000000000000000000000000000000060000000000000000000000000000000000000000000000000000000000000016000000000000000000000000000000000000000000000000000000000000002e000000000000000000000000000000000000000000000000000000000000000030000000000000000000000000000000000000000000000000000000000000000000000000000000000000000000000000000000000000000000000000000000000000000000000000000000000000000000000000000000000000000000000a000000000000000000000000000000000000000000000000000000000000000c000000000000000000000000000000000000000000000000000000000000000000000000000000000000000000000000000000000000000000000000000000020000000000000000000000000750e4c4984a9e0f12978ea6742bc1c5d248f40ed0000000000000000000000000000000000000000000000000000000000000000000000000000000000000000750e4c4984a9e0f12978ea6742bc1c5d248f40ed000000000000000000000000000000000000000000000000000000000000000000000000000000000000000000000000000000000000000000000000000000a000000000000000000000000000000000000000000000000000000000000001200000000000000000000000000000000000000000000000000000000000000044095ea7b3000000000000000000000000f5b509bb0909a69b1c207e495f687a596c168e12ffffffffffffffffffffffffffffffffffffffffffffffffffffffffffffffff000000000000000000000000000000000000000000000000000000000000000000000000000000000000000000000000000000000000000000000040000000000000000000000000750e4c4984a9e0f12978ea6742bc1c5d248f40ed00000000000000000000000000000000000000000000000000000000000000010000000000000000000000000000000000000000000000000000000000000001000000000000000000000000f5b509bb0909a69b1c207e495f687a596c168e12000000000000000000000000000000000000000000000000000000000000000000000000000000000000000000000000000000000000000000000000000000a000000000000000000000000000000000000000000000000000000000000001c000000000000000000000000000000000000000000000000000000000000000e4bc651188000000000000000000000000750e4c4984a9e0f12978ea6742bc1c5d248f40ed0000000000000000000000003c499c542cef5e3811e1192ce70d8cc03d5c335900000000000000000000000084c048f96784d40d0fc66e18fe37538c99666cf50000000000000000000000000000000000000000000000000000019611db6ad30000000000000000000000000000000000000000000000000000000000113e1000000000000000000000000000000000000000000000000000000000001137820000000000000000000000000000000000000000000000000000000000000000000000000000000000000000000000000000000000000000000000000000000000000000000000000000000000000000000000000000000000000040000000000000000000000000750e4c4984a9e0f12978ea6742bc1c5d248f40ed000000000000000000000000000000000000000000000000000000000000000472867520e3f103591bf1b915fb0526060000000000000000000000000000000072867520e3f103591bf1b915fb052606",
        "value": "1506355842417717603",
        "gas": "1140000",
        "maxFeePerGas": "37500000000",
        "nonce": 2
      },
      "phase": "squidrouterSwap",
      "network": "moonbeam",
      "nonce": 2,
      "signer": "0x84c048F96784D40D0fC66E18FE37538C99666Cf5"
    },
    {
      "tx_data": "0xd9010438060093dfde426795690be15b2071741d6538cd265eb673a9e9a1ae4e4389fda96a62000757318c4c02ce800200001101095ea7b3e0a5f34199e165cbd3f9b0eba1f5e15d5018a7ffe8b76a3693ba5b317efb09d800002cf61a24a229000000000000000000000000000000000000000000000000",
      "phase": "nablaApprove",
      "network": "pendulum",
      "nonce": 0,
      "signer": "5FUanHMUug2fwTFqEMoR5Mfbse7Ja8A9qPbYCBnBaV3yjVi5"
    },
    {
      "tx_data": "0xdd0304380600e0a5f34199e165cbd3f9b0eba1f5e15d5018a7ffe8b76a3693ba5b317efb09d80007003a9a535082584f0000150338ed173900002cf61a24a22900000000000000000000000000000000000000000000000001000000000000000000000000000000000000000000000000000000000000000893dfde426795690be15b2071741d6538cd265eb673a9e9a1ae4e4389fda96a6290573e0b663336bc844ddd1293af95b0b1872f2677f93e11cc658fafddc58db996eac57a9ad925ba98e47033282b41b73cae0efa2d30bc4f5df1340570f04f699466fd6700000000000000000000000000000000000000000000000000000000",
      "phase": "nablaSwap",
      "network": "pendulum",
      "nonce": 0,
      "signer": "5FUanHMUug2fwTFqEMoR5Mfbse7Ja8A9qPbYCBnBaV3yjVi5"
    },
    {
      "tx_data": "0xd1010433020c35010056d9583bf0369fff4a35d997b2b5f5997843311823b1aa88fe9661874984e647010d0035010056d9583bf0369fff4a35d997b2b5f5997843311823b1aa88fe9661874984e647010c000a040056d9583bf0369fff4a35d997b2b5f5997843311823b1aa88fe9661874984e64700",
      "phase": "pendulumCleanup",
      "network": "pendulum",
      "nonce": 3,
      "signer": "5FUanHMUug2fwTFqEMoR5Mfbse7Ja8A9qPbYCBnBaV3yjVi5"
    },
    {
      "tx_data": "0x250104360408010c103e110000000000000000000000000001060000c52ebca2b10000000000000000000100000001010200511f030084c048f96784d40d0fc66e18fe37538c99666cf500",
      "phase": "pendulumToMoonbeam",
      "network": "pendulum",
      "nonce": 2,
      "signer": "5FUanHMUug2fwTFqEMoR5Mfbse7Ja8A9qPbYCBnBaV3yjVi5"
    }
  ],
  "presignedTxs": [
    {
      "tx_data": "0x7103840096eac57a9ad925ba98e47033282b41b73cae0efa2d30bc4f5df1340570f04f6901a0eb18c33ad3bc8523606b8fd29404df57d1a1842b698896fd35316506799f54bc9686d28ba6421628c51e6164c0cc62e81e0d845a1dd11f21d485ed33da17880000000038060093dfde426795690be15b2071741d6538cd265eb673a9e9a1ae4e4389fda96a62000757318c4c02ce800200001101095ea7b3e0a5f34199e165cbd3f9b0eba1f5e15d5018a7ffe8b76a3693ba5b317efb09d800002cf61a24a229000000000000000000000000000000000000000000000000",
      "phase": "nablaApprove",
      "network": "pendulum",
      "nonce": 0,
      "signer": "5FUanHMUug2fwTFqEMoR5Mfbse7Ja8A9qPbYCBnBaV3yjVi5"
    },
    {
      "tx_data": "0x7505840096eac57a9ad925ba98e47033282b41b73cae0efa2d30bc4f5df1340570f04f690138f14634f8ea7065f2268b9130d9cce21fabbb9d8ffbc8262f206a5f72d6995428146723917f3b876752e9a8297d3e0903f3bf09e2c31e3dd49cbfed5f80dc8300000000380600e0a5f34199e165cbd3f9b0eba1f5e15d5018a7ffe8b76a3693ba5b317efb09d80007003a9a535082584f0000150338ed173900002cf61a24a22900000000000000000000000000000000000000000000000001000000000000000000000000000000000000000000000000000000000000000893dfde426795690be15b2071741d6538cd265eb673a9e9a1ae4e4389fda96a6290573e0b663336bc844ddd1293af95b0b1872f2677f93e11cc658fafddc58db996eac57a9ad925ba98e47033282b41b73cae0efa2d30bc4f5df1340570f04f699466fd6700000000000000000000000000000000000000000000000000000000",
      "phase": "nablaSwap",
      "network": "pendulum",
      "nonce": 0,
      "signer": "5FUanHMUug2fwTFqEMoR5Mfbse7Ja8A9qPbYCBnBaV3yjVi5"
    },
    {
      "tx_data": "0x6903840096eac57a9ad925ba98e47033282b41b73cae0efa2d30bc4f5df1340570f04f690120ce2b8b2f74c2251eb44a487b3e4fa72b2cb0bb8159e616714fa17205d2b92c650236fc7475e3780773fc50f746a5332b31794a501a7b8b321e4f03925eee8a000c000033020c35010056d9583bf0369fff4a35d997b2b5f5997843311823b1aa88fe9661874984e647010d0035010056d9583bf0369fff4a35d997b2b5f5997843311823b1aa88fe9661874984e647010c000a040056d9583bf0369fff4a35d997b2b5f5997843311823b1aa88fe9661874984e64700",
      "phase": "pendulumCleanup",
      "network": "pendulum",
      "nonce": 3,
      "signer": "5FUanHMUug2fwTFqEMoR5Mfbse7Ja8A9qPbYCBnBaV3yjVi5"
    },
    {
      "tx_data": "0xbd02840096eac57a9ad925ba98e47033282b41b73cae0efa2d30bc4f5df1340570f04f6901be488824f883f88f3cdb57881b678554f4850baf9645e186afacf4181c06e65a7461ee533f2f88de535f4c78a00a6993cee67890ae9d0baeda1c4328a368b08d00080000360408010c103e110000000000000000000000000001060000c52ebca2b10000000000000000000100000001010200511f030084c048f96784d40d0fc66e18fe37538c99666cf500",
      "phase": "pendulumToMoonbeam",
      "network": "pendulum",
      "nonce": 2,
      "signer": "5FUanHMUug2fwTFqEMoR5Mfbse7Ja8A9qPbYCBnBaV3yjVi5"
    },
    {
      "tx_data": "0x02f8af82050401808508bb2c9700830249f094ca01a1d0993565291051daff390892518acfad3a80b844095ea7b3000000000000000000000000ce16f69375520ab01377ce7b88f5ba8c48f8d6660000000000000000000000000000000000000000000000000000000000113e10c001a074a763b0f46ca260ea5554031c656a0c0781d447a575851b07320557b44426c8a00d4aaf8741f2f5640d3e06e440c3d71edeaccea0995b5d4e2ba97eda8facb338",
      "phase": "squidrouterApprove",
      "network": "moonbeam",
      "nonce": 1,
      "signer": "0x84c048F96784D40D0fC66E18FE37538C99666Cf5"
    },
    {
      "tx_data": "0x02f907e882050402808508bb2c97008311652094ce16f69375520ab01377ce7b88f5ba8c48f8d6668814e7a6a85ca47163b907742147796000000000000000000000000000000000000000000000000000000000000000e00000000000000000000000000000000000000000000000000000000000113e100000000000000000000000000000000000000000000000000000000000000120000000000000000000000000000000000000000000000000000000000000016000000000000000000000000000000000000000000000000000000000000001c000000000000000000000000084c048f96784d40d0fc66e18fe37538c99666cf50000000000000000000000000000000000000000000000000000000000000001000000000000000000000000000000000000000000000000000000000000000761786c55534443000000000000000000000000000000000000000000000000000000000000000000000000000000000000000000000000000000000000000007506f6c79676f6e00000000000000000000000000000000000000000000000000000000000000000000000000000000000000000000000000000000000000002a307863653136463639333735353230616230313337376365374238386635424138433438463844363636000000000000000000000000000000000000000000000000000000000000000000000000000000000000000000000000000000000570000000000000000000000000000000000000000000000000000000000000004000000000000000000000000084c048f96784d40d0fc66e18fe37538c99666cf500000000000000000000000000000000000000000000000000000000000000030000000000000000000000000000000000000000000000000000000000000060000000000000000000000000000000000000000000000000000000000000016000000000000000000000000000000000000000000000000000000000000002e000000000000000000000000000000000000000000000000000000000000000030000000000000000000000000000000000000000000000000000000000000000000000000000000000000000000000000000000000000000000000000000000000000000000000000000000000000000000000000000000000000000000000a000000000000000000000000000000000000000000000000000000000000000c000000000000000000000000000000000000000000000000000000000000000000000000000000000000000000000000000000000000000000000000000000020000000000000000000000000750e4c4984a9e0f12978ea6742bc1c5d248f40ed0000000000000000000000000000000000000000000000000000000000000000000000000000000000000000750e4c4984a9e0f12978ea6742bc1c5d248f40ed000000000000000000000000000000000000000000000000000000000000000000000000000000000000000000000000000000000000000000000000000000a000000000000000000000000000000000000000000000000000000000000001200000000000000000000000000000000000000000000000000000000000000044095ea7b3000000000000000000000000f5b509bb0909a69b1c207e495f687a596c168e12ffffffffffffffffffffffffffffffffffffffffffffffffffffffffffffffff000000000000000000000000000000000000000000000000000000000000000000000000000000000000000000000000000000000000000000000040000000000000000000000000750e4c4984a9e0f12978ea6742bc1c5d248f40ed00000000000000000000000000000000000000000000000000000000000000010000000000000000000000000000000000000000000000000000000000000001000000000000000000000000f5b509bb0909a69b1c207e495f687a596c168e12000000000000000000000000000000000000000000000000000000000000000000000000000000000000000000000000000000000000000000000000000000a000000000000000000000000000000000000000000000000000000000000001c000000000000000000000000000000000000000000000000000000000000000e4bc651188000000000000000000000000750e4c4984a9e0f12978ea6742bc1c5d248f40ed0000000000000000000000003c499c542cef5e3811e1192ce70d8cc03d5c335900000000000000000000000084c048f96784d40d0fc66e18fe37538c99666cf50000000000000000000000000000000000000000000000000000019611db6ad30000000000000000000000000000000000000000000000000000000000113e1000000000000000000000000000000000000000000000000000000000001137820000000000000000000000000000000000000000000000000000000000000000000000000000000000000000000000000000000000000000000000000000000000000000000000000000000000000000000000000000000000000040000000000000000000000000750e4c4984a9e0f12978ea6742bc1c5d248f40ed000000000000000000000000000000000000000000000000000000000000000472867520e3f103591bf1b915fb0526060000000000000000000000000000000072867520e3f103591bf1b915fb052606c001a03ea93881753e5ba0ab1f7a24dd5b37e123de84684af281645570c5d7c5bc245ea003cad55b0560f1ef129394d0d0968155ce3ab46e9e422b9e56bf1f5b3bbcfae9",
      "phase": "squidrouterSwap",
      "network": "moonbeam",
      "nonce": 2,
      "signer": "0x84c048F96784D40D0fC66E18FE37538C99666Cf5"
    }
  ],
  "from": "pix",
  "to": "polygon",
  "state": {
    "inputAmount": "3",
    "inputCurrency": "brl",
    "outputAmount": "0.38",
    "outputCurrency": "usdc",
    "walletAddress": "0x30a300612ab372CC73e53ffE87fB73d62Ed68Da3",
    "taxId": "758.444.017-77",
    "destinationAddress": "0x7ba99e99bc669b3508aff9cc0a898e869459f877",
    "outputTokenType": "usdc",
    "inputTokenPendulumDetails": {
      "pendulumErc20WrapperAddress": "6eRq1yvty6KorGcJ3nKpNYrCBn9FQnzsBhFn4JmAFqWUwpnh",
      "pendulumCurrencyId": {
        "XCM": 13
      },
      "pendulumAssetSymbol": "BRLA",
      "pendulumDecimals": 18
    },
    "outputTokenPendulumDetails": {
      "pendulumErc20WrapperAddress": "6eMCHeByJ3m2yPsXFkezBfCQtMs3ymUPqtAyCA41mNWmbNJe",
      "pendulumCurrencyId": {
        "XCM": 12
      },
      "pendulumAssetSymbol": "USDC.axl",
      "pendulumDecimals": 6
    },
    "outputAmountBeforeFees": {
      "units": "1.13",
      "raw": "1130000"
    },
    "pendulumEphemeralAddress": "5FUanHMUug2fwTFqEMoR5Mfbse7Ja8A9qPbYCBnBaV3yjVi5",
    "moonbeamEphemeralAddress": "0x84c048F96784D40D0fC66E18FE37538C99666Cf5",
    "inputAmountUnits": "2.25",
    "nablaSoftMinimumOutputRaw": "1107400000000000000",
    "inputAmountBeforeSwapRaw": "2250000000000000000"
  },
  "quoteId": "61c71dd1-fd17-4697-b23f-0dc35a4046bc",
  "phaseHistory": [
    {
      "phase": "initial",
      "timestamp": "2025-04-07T19:48:36.641Z"
    },
    {
      "phase": "fundEphemeral",
      "timestamp": "2025-04-07T19:48:37.761Z"
    }
  ],
  "errorLogs": [],
  "createdAt": "2025-04-07T19:48:36.641Z",
  "updatedAt": "2025-04-07T19:48:36.641Z"
}