{
  "id": "88f1d64a-e50e-47e6-8bdc-c2c99fcb6904",
  "type": "on",
  "currentPhase": "moonbeamToPendulumXcm",
  "unsignedTxs": [
    {
      "txData": "0x690104670b03010100b9200300010100e4d4b0a845f390461f283ae9f997c9e398f1717d15ce31606d3f20530dfd86190304000002046e0300feb25f3fddad13f82c4d6dbc1481516f6223642900130000d9e9ac2d78030000000000",
      "phase": "moonbeamToPendulumXcm",
      "network": "moonbeam",
      "nonce": 0,
      "signer": "0x0DCDC64a9362B3A278FDf13203D89DC283420f13"
    },
    {
      "txData": {
        "to": "0xca01a1d0993565291051daff390892518acfad3a",
        "data": "0x095ea7b3000000000000000000000000ce16f69375520ab01377ce7b88f5ba8c48f8d6660000000000000000000000000000000000000000000000000000000000009c40",
        "value": "0",
        "nonce": 1,
        "gas": "150000",
        "maxFeePerGas": "37500000000",
        "maxPriorityFeePerGas": "0"
      },
      "phase": "squidrouterApprove",
      "network": "moonbeam",
      "nonce": 1,
      "signer": "0x0DCDC64a9362B3A278FDf13203D89DC283420f13"
    },
    {
      "txData": {
        "to": "0xce16F69375520ab01377ce7B88f5BA8C48F8D666",
        "data": "0x2147796000000000000000000000000000000000000000000000000000000000000000e00000000000000000000000000000000000000000000000000000000000009c400000000000000000000000000000000000000000000000000000000000000120000000000000000000000000000000000000000000000000000000000000016000000000000000000000000000000000000000000000000000000000000001c00000000000000000000000000dcdc64a9362b3a278fdf13203d89dc283420f130000000000000000000000000000000000000000000000000000000000000001000000000000000000000000000000000000000000000000000000000000000761786c55534443000000000000000000000000000000000000000000000000000000000000000000000000000000000000000000000000000000000000000007506f6c79676f6e00000000000000000000000000000000000000000000000000000000000000000000000000000000000000000000000000000000000000002a30786365313646363933373535323061623031333737636537423838663542413843343846384436363600000000000000000000000000000000000000000000000000000000000000000000000000000000000000000000000000000000095000000000000000000000000000000000000000000000000000000000000000400000000000000000000000000dcdc64a9362b3a278fdf13203d89dc283420f13000000000000000000000000000000000000000000000000000000000000000500000000000000000000000000000000000000000000000000000000000000a000000000000000000000000000000000000000000000000000000000000001a00000000000000000000000000000000000000000000000000000000000000320000000000000000000000000000000000000000000000000000000000000054000000000000000000000000000000000000000000000000000000000000006c000000000000000000000000000000000000000000000000000000000000000030000000000000000000000000000000000000000000000000000000000000000000000000000000000000000000000000000000000000000000000000000000000000000000000000000000000000000000000000000000000000000000000a000000000000000000000000000000000000000000000000000000000000000c000000000000000000000000000000000000000000000000000000000000000000000000000000000000000000000000000000000000000000000000000000020000000000000000000000000750e4c4984a9e0f12978ea6742bc1c5d248f40ed0000000000000000000000000000000000000000000000000000000000000000000000000000000000000000750e4c4984a9e0f12978ea6742bc1c5d248f40ed000000000000000000000000000000000000000000000000000000000000000000000000000000000000000000000000000000000000000000000000000000a000000000000000000000000000000000000000000000000000000000000001200000000000000000000000000000000000000000000000000000000000000044095ea7b300000000000000000000000068b3465833fb72a70ecdf485e0e4c7bd8665fc45ffffffffffffffffffffffffffffffffffffffffffffffffffffffffffffffff000000000000000000000000000000000000000000000000000000000000000000000000000000000000000000000000000000000000000000000040000000000000000000000000750e4c4984a9e0f12978ea6742bc1c5d248f40ed0000000000000000000000000000000000000000000000000000000000000001000000000000000000000000000000000000000000000000000000000000000100000000000000000000000068b3465833fb72a70ecdf485e0e4c7bd8665fc45000000000000000000000000000000000000000000000000000000000000000000000000000000000000000000000000000000000000000000000000000000a000000000000000000000000000000000000000000000000000000000000001c000000000000000000000000000000000000000000000000000000000000000e404e45aaf000000000000000000000000750e4c4984a9e0f12978ea6742bc1c5d248f40ed0000000000000000000000002791bca1f2de4661ed88a30c99a7a9449aa841740000000000000000000000000000000000000000000000000000000000000064000000000000000000000000ad6cea45f98444a922a2b4fe96b8c90f0862d2f40000000000000000000000000000000000000000000000000000000000009c400000000000000000000000000000000000000000000000000000000000009bfa0000000000000000000000000000000000000000000000000000000000000000000000000000000000000000000000000000000000000000000000000000000000000000000000000000000000000000000000000000000000000040000000000000000000000000750e4c4984a9e0f12978ea6742bc1c5d248f40ed000000000000000000000000000000000000000000000000000000000000000400000000000000000000000000000000000000000000000000000000000000000000000000000000000000002791bca1f2de4661ed88a30c99a7a9449aa84174000000000000000000000000000000000000000000000000000000000000000000000000000000000000000000000000000000000000000000000000000000a000000000000000000000000000000000000000000000000000000000000001200000000000000000000000000000000000000000000000000000000000000044095ea7b300000000000000000000000068b3465833fb72a70ecdf485e0e4c7bd8665fc45ffffffffffffffffffffffffffffffffffffffffffffffffffffffffffffffff0000000000000000000000000000000000000000000000000000000000000000000000000000000000000000000000000000000000000000000000400000000000000000000000002791bca1f2de4661ed88a30c99a7a9449aa841740000000000000000000000000000000000000000000000000000000000000001000000000000000000000000000000000000000000000000000000000000000100000000000000000000000068b3465833fb72a70ecdf485e0e4c7bd8665fc45000000000000000000000000000000000000000000000000000000000000000000000000000000000000000000000000000000000000000000000000000000a000000000000000000000000000000000000000000000000000000000000001c000000000000000000000000000000000000000000000000000000000000000e404e45aaf0000000000000000000000002791bca1f2de4661ed88a30c99a7a9449aa841740000000000000000000000003c499c542cef5e3811e1192ce70d8cc03d5c335900000000000000000000000000000000000000000000000000000000000001f40000000000000000000000000dcdc64a9362b3a278fdf13203d89dc283420f130000000000000000000000000000000000000000000000000000000000009c430000000000000000000000000000000000000000000000000000000000009b9b00000000000000000000000000000000000000000000000000000000000000000000000000000000000000000000000000000000000000000000000000000000000000000000000000000000000000000000000000000000000000400000000000000000000000002791bca1f2de4661ed88a30c99a7a9449aa84174000000000000000000000000000000000000000000000000000000000000000456047cdc10a3839aa2a967c8014707660000000000000000000000000000000056047cdc10a3839aa2a967c801470766",
        "value": "1444419547784751295",
        "gas": "1140000",
        "maxFeePerGas": "37500000000",
        "maxPriorityFeePerGas": "0",
        "nonce": 2
      },
      "phase": "squidrouterSwap",
      "network": "moonbeam",
      "nonce": 2,
      "signer": "0x0DCDC64a9362B3A278FDf13203D89DC283420f13"
    },
    {
      "txData": "0xd9010438060093dfde426795690be15b2071741d6538cd265eb673a9e9a1ae4e4389fda96a62000757318c4c02ce800200001101095ea7b3e0a5f34199e165cbd3f9b0eba1f5e15d5018a7ffe8b76a3693ba5b317efb09d80000d9e9ac2d7803000000000000000000000000000000000000000000000000",
      "phase": "nablaApprove",
      "network": "pendulum",
      "nonce": 0,
      "signer": "5HEjxTfqHsTwFvJ5Q7YDypSCKFZwAsgwQ3D5rgKjuUgBfk1K"
    },
    {
      "txData": "0xdd0304380600e0a5f34199e165cbd3f9b0eba1f5e15d5018a7ffe8b76a3693ba5b317efb09d80007003a9a535082584f0000150338ed17390000d9e9ac2d780300000000000000000000000000000000000000000000000000000000000000000000000000000000000000000000000000000000000000000893dfde426795690be15b2071741d6538cd265eb673a9e9a1ae4e4389fda96a6290573e0b663336bc844ddd1293af95b0b1872f2677f93e11cc658fafddc58db9e4d4b0a845f390461f283ae9f997c9e398f1717d15ce31606d3f20530dfd86195d8dfe6700000000000000000000000000000000000000000000000000000000",
      "phase": "nablaSwap",
      "network": "pendulum",
      "nonce": 1,
      "signer": "5HEjxTfqHsTwFvJ5Q7YDypSCKFZwAsgwQ3D5rgKjuUgBfk1K"
    },
    {
      "txData": "0xd1010433020c35010056d9583bf0369fff4a35d997b2b5f5997843311823b1aa88fe9661874984e647010d0035010056d9583bf0369fff4a35d997b2b5f5997843311823b1aa88fe9661874984e647010c000a040056d9583bf0369fff4a35d997b2b5f5997843311823b1aa88fe9661874984e64700",
      "phase": "pendulumCleanup",
      "network": "pendulum",
      "nonce": 3,
      "signer": "5HEjxTfqHsTwFvJ5Q7YDypSCKFZwAsgwQ3D5rgKjuUgBfk1K"
    },
    {
      "txData": "0x250104360408010c409c000000000000000000000000000001060000c52ebca2b10000000000000000000100000001010200511f03000dcdc64a9362b3a278fdf13203d89dc283420f1300",
      "phase": "pendulumToMoonbeam",
      "network": "pendulum",
      "nonce": 2,
      "signer": "5HEjxTfqHsTwFvJ5Q7YDypSCKFZwAsgwQ3D5rgKjuUgBfk1K"
    }
  ],
  "presignedTxs": [
    {
      "txData": "0x71038400e4d4b0a845f390461f283ae9f997c9e398f1717d15ce31606d3f20530dfd861901604ea5987d424fdfc1c77b38e72c4c5425683bce632588a6c2012cc273db1c0bb01dc2bad35e6586005f1baf3e65154c5ac6d70e19da917d8a7de63bca9f1a850000000038060093dfde426795690be15b2071741d6538cd265eb673a9e9a1ae4e4389fda96a62000757318c4c02ce800200001101095ea7b3e0a5f34199e165cbd3f9b0eba1f5e15d5018a7ffe8b76a3693ba5b317efb09d80000d9e9ac2d7803000000000000000000000000000000000000000000000000",
      "phase": "nablaApprove",
      "network": "pendulum",
      "nonce": 0,
      "signer": "5HEjxTfqHsTwFvJ5Q7YDypSCKFZwAsgwQ3D5rgKjuUgBfk1K"
    },
    {
      "txData": "0x75058400e4d4b0a845f390461f283ae9f997c9e398f1717d15ce31606d3f20530dfd861901027c59a007414b07eb4d69558b9d9ee26853f6d2a9a1ab84a49fbe407888b4473ea3c918a5a512901942d33cb6b1f6dd1903ef421e96f093ab1285e5cf67e98400040000380600e0a5f34199e165cbd3f9b0eba1f5e15d5018a7ffe8b76a3693ba5b317efb09d80007003a9a535082584f0000150338ed17390000d9e9ac2d780300000000000000000000000000000000000000000000000000000000000000000000000000000000000000000000000000000000000000000893dfde426795690be15b2071741d6538cd265eb673a9e9a1ae4e4389fda96a6290573e0b663336bc844ddd1293af95b0b1872f2677f93e11cc658fafddc58db9e4d4b0a845f390461f283ae9f997c9e398f1717d15ce31606d3f20530dfd86195d8dfe6700000000000000000000000000000000000000000000000000000000",
      "phase": "nablaSwap",
      "network": "pendulum",
      "nonce": 1,
      "signer": "5HEjxTfqHsTwFvJ5Q7YDypSCKFZwAsgwQ3D5rgKjuUgBfk1K"
    },
    {
      "txData": "0x69038400e4d4b0a845f390461f283ae9f997c9e398f1717d15ce31606d3f20530dfd8619019a0b8e0bb5efdeb75cd13bc01437fdc120937fd766c11aa9b10ed5cb78949a5c37394c32bec730d5e400da1a6c3089cba6256336437a1718b9a8ed38284aca84000c000033020c35010056d9583bf0369fff4a35d997b2b5f5997843311823b1aa88fe9661874984e647010d0035010056d9583bf0369fff4a35d997b2b5f5997843311823b1aa88fe9661874984e647010c000a040056d9583bf0369fff4a35d997b2b5f5997843311823b1aa88fe9661874984e64700",
      "phase": "pendulumCleanup",
      "network": "pendulum",
      "nonce": 3,
      "signer": "5HEjxTfqHsTwFvJ5Q7YDypSCKFZwAsgwQ3D5rgKjuUgBfk1K"
    },
    {
      "txData": "0xbd028400e4d4b0a845f390461f283ae9f997c9e398f1717d15ce31606d3f20530dfd8619019878206d5afc430bb8c6277e004b7d963afeb098779a6eb33eed4b3290cda752922282b449d0e7dc6fbe5780e3d73202710f2d0ce0a26dea597e5622d710218500080000360408010c409c000000000000000000000000000001060000c52ebca2b10000000000000000000100000001010200511f03000dcdc64a9362b3a278fdf13203d89dc283420f1300",
      "phase": "pendulumToMoonbeam",
      "network": "pendulum",
      "nonce": 2,
      "signer": "5HEjxTfqHsTwFvJ5Q7YDypSCKFZwAsgwQ3D5rgKjuUgBfk1K"
    },
    {
      "txData": "0xcd02840dcdc64a9362b3a278fdf13203d89dc283420f13d4bf32bf89e8ce31af9895aaac6e64a32efadbed6cf85627bc3de288cd8f6d7207ee2d254ec1071e15bb8c2bfbb48b61d91e574f002a31488bc5f6172eb7359b0000000000670b03010100b9200300010100e4d4b0a845f390461f283ae9f997c9e398f1717d15ce31606d3f20530dfd86190304000002046e0300feb25f3fddad13f82c4d6dbc1481516f6223642900130000d9e9ac2d78030000000000",
      "phase": "moonbeamToPendulumXcm",
      "network": "moonbeam",
      "nonce": 0,
      "signer": "0x0DCDC64a9362B3A278FDf13203D89DC283420f13"
    },
    {
      "txData": "0x02f8af82050401808508bb2c9700830249f094ca01a1d0993565291051daff390892518acfad3a80b844095ea7b3000000000000000000000000ce16f69375520ab01377ce7b88f5ba8c48f8d6660000000000000000000000000000000000000000000000000000000000009c40c080a0d100b3fafb6e9efe0e09f0d6cccac3022e918e4664a6691e833dce9baadb0c08a04f9d979f1acc04a70d85a7fb8b0a8b1b254a8288ed0e6cf5582cd309077a2a55",
      "phase": "squidrouterApprove",
      "network": "moonbeam",
      "nonce": 1,
      "signer": "0x0DCDC64a9362B3A278FDf13203D89DC283420f13"
    },
    {
      "txData": "0x02f90bc882050402808508bb2c97008311652094ce16f69375520ab01377ce7b88f5ba8c48f8d66688140b9bed045728bfb90b542147796000000000000000000000000000000000000000000000000000000000000000e00000000000000000000000000000000000000000000000000000000000009c400000000000000000000000000000000000000000000000000000000000000120000000000000000000000000000000000000000000000000000000000000016000000000000000000000000000000000000000000000000000000000000001c00000000000000000000000000dcdc64a9362b3a278fdf13203d89dc283420f130000000000000000000000000000000000000000000000000000000000000001000000000000000000000000000000000000000000000000000000000000000761786c55534443000000000000000000000000000000000000000000000000000000000000000000000000000000000000000000000000000000000000000007506f6c79676f6e00000000000000000000000000000000000000000000000000000000000000000000000000000000000000000000000000000000000000002a30786365313646363933373535323061623031333737636537423838663542413843343846384436363600000000000000000000000000000000000000000000000000000000000000000000000000000000000000000000000000000000095000000000000000000000000000000000000000000000000000000000000000400000000000000000000000000dcdc64a9362b3a278fdf13203d89dc283420f13000000000000000000000000000000000000000000000000000000000000000500000000000000000000000000000000000000000000000000000000000000a000000000000000000000000000000000000000000000000000000000000001a00000000000000000000000000000000000000000000000000000000000000320000000000000000000000000000000000000000000000000000000000000054000000000000000000000000000000000000000000000000000000000000006c000000000000000000000000000000000000000000000000000000000000000030000000000000000000000000000000000000000000000000000000000000000000000000000000000000000000000000000000000000000000000000000000000000000000000000000000000000000000000000000000000000000000000a000000000000000000000000000000000000000000000000000000000000000c000000000000000000000000000000000000000000000000000000000000000000000000000000000000000000000000000000000000000000000000000000020000000000000000000000000750e4c4984a9e0f12978ea6742bc1c5d248f40ed0000000000000000000000000000000000000000000000000000000000000000000000000000000000000000750e4c4984a9e0f12978ea6742bc1c5d248f40ed000000000000000000000000000000000000000000000000000000000000000000000000000000000000000000000000000000000000000000000000000000a000000000000000000000000000000000000000000000000000000000000001200000000000000000000000000000000000000000000000000000000000000044095ea7b300000000000000000000000068b3465833fb72a70ecdf485e0e4c7bd8665fc45ffffffffffffffffffffffffffffffffffffffffffffffffffffffffffffffff000000000000000000000000000000000000000000000000000000000000000000000000000000000000000000000000000000000000000000000040000000000000000000000000750e4c4984a9e0f12978ea6742bc1c5d248f40ed0000000000000000000000000000000000000000000000000000000000000001000000000000000000000000000000000000000000000000000000000000000100000000000000000000000068b3465833fb72a70ecdf485e0e4c7bd8665fc45000000000000000000000000000000000000000000000000000000000000000000000000000000000000000000000000000000000000000000000000000000a000000000000000000000000000000000000000000000000000000000000001c000000000000000000000000000000000000000000000000000000000000000e404e45aaf000000000000000000000000750e4c4984a9e0f12978ea6742bc1c5d248f40ed0000000000000000000000002791bca1f2de4661ed88a30c99a7a9449aa841740000000000000000000000000000000000000000000000000000000000000064000000000000000000000000ad6cea45f98444a922a2b4fe96b8c90f0862d2f40000000000000000000000000000000000000000000000000000000000009c400000000000000000000000000000000000000000000000000000000000009bfa0000000000000000000000000000000000000000000000000000000000000000000000000000000000000000000000000000000000000000000000000000000000000000000000000000000000000000000000000000000000000040000000000000000000000000750e4c4984a9e0f12978ea6742bc1c5d248f40ed000000000000000000000000000000000000000000000000000000000000000400000000000000000000000000000000000000000000000000000000000000000000000000000000000000002791bca1f2de4661ed88a30c99a7a9449aa84174000000000000000000000000000000000000000000000000000000000000000000000000000000000000000000000000000000000000000000000000000000a000000000000000000000000000000000000000000000000000000000000001200000000000000000000000000000000000000000000000000000000000000044095ea7b300000000000000000000000068b3465833fb72a70ecdf485e0e4c7bd8665fc45ffffffffffffffffffffffffffffffffffffffffffffffffffffffffffffffff0000000000000000000000000000000000000000000000000000000000000000000000000000000000000000000000000000000000000000000000400000000000000000000000002791bca1f2de4661ed88a30c99a7a9449aa841740000000000000000000000000000000000000000000000000000000000000001000000000000000000000000000000000000000000000000000000000000000100000000000000000000000068b3465833fb72a70ecdf485e0e4c7bd8665fc45000000000000000000000000000000000000000000000000000000000000000000000000000000000000000000000000000000000000000000000000000000a000000000000000000000000000000000000000000000000000000000000001c000000000000000000000000000000000000000000000000000000000000000e404e45aaf0000000000000000000000002791bca1f2de4661ed88a30c99a7a9449aa841740000000000000000000000003c499c542cef5e3811e1192ce70d8cc03d5c335900000000000000000000000000000000000000000000000000000000000001f40000000000000000000000000dcdc64a9362b3a278fdf13203d89dc283420f130000000000000000000000000000000000000000000000000000000000009c430000000000000000000000000000000000000000000000000000000000009b9b00000000000000000000000000000000000000000000000000000000000000000000000000000000000000000000000000000000000000000000000000000000000000000000000000000000000000000000000000000000000000400000000000000000000000002791bca1f2de4661ed88a30c99a7a9449aa84174000000000000000000000000000000000000000000000000000000000000000456047cdc10a3839aa2a967c8014707660000000000000000000000000000000056047cdc10a3839aa2a967c801470766c080a00b26045f820a876158fb1cc1d002b11ed2bf4840d1781c39bc62c29e0aed90b5a033857c09492dc43f492bb07430ae4a8b0557d6c09430712ab2a87bbc85240b05",
      "phase": "squidrouterSwap",
      "network": "moonbeam",
      "nonce": 2,
      "signer": "0x0DCDC64a9362B3A278FDf13203D89DC283420f13"
    }
  ],
  "from": "pix",
  "to": "polygon",
  "state": {
    "inputAmount": "1",
    "inputCurrency": "brl",
    "outputAmount": "0.04",
    "outputCurrency": "usdc",
    "walletAddress": "0x30a300612ab372CC73e53ffE87fB73d62Ed68Da3",
    "taxId": "718.784.051-95",
    "destinationAddress": "0x7ba99e99bc669b3508aff9cc0a898e869459f877",
    "outputTokenType": "usdc",
    "inputTokenPendulumDetails": {
      "pendulumErc20WrapperAddress": "6eRq1yvty6KorGcJ3nKpNYrCBn9FQnzsBhFn4JmAFqWUwpnh",
      "pendulumCurrencyId": {
        "XCM": 13
      },
      "pendulumAssetSymbol": "BRLA",
      "pendulumDecimals": 18
    },
    "outputTokenPendulumDetails": {
      "pendulumErc20WrapperAddress": "6eMCHeByJ3m2yPsXFkezBfCQtMs3ymUPqtAyCA41mNWmbNJe",
      "pendulumCurrencyId": {
        "XCM": 12
      },
      "pendulumAssetSymbol": "USDC.axl",
      "pendulumDecimals": 6
    },
    "outputAmountBeforeFees": {
      "units": "0.04",
      "raw": "40000"
    },
    "pendulumEphemeralAddress": "5HEjxTfqHsTwFvJ5Q7YDypSCKFZwAsgwQ3D5rgKjuUgBfk1K",
    "moonbeamEphemeralAddress": "0x0DCDC64a9362B3A278FDf13203D89DC283420f13",
    "inputAmountUnits": "0.25",
    "nablaSoftMinimumOutputRaw": "39200",
    "inputAmountBeforeSwapRaw": "250000000000000000"
  },
  "quoteId": "c51997a6-a868-458b-b391-d0427cf9f371",
  "phaseHistory": [
    {
      "phase": "initial",
      "timestamp": "2025-04-08T16:46:21.903Z"
    },
    {
      "phase": "fundEphemeral",
      "timestamp": "2025-04-08T16:46:22.905Z"
    },
    {
      "phase": "createPayInRequest",
      "timestamp": "2025-04-08T16:47:34.147Z"
    },
    {
      "phase": "moonbeamToPendulumXcm",
      "timestamp": "2025-04-08T16:49:07.004Z"
    }
  ],
  "errorLogs": [
    {
      "phase": "fundEphemeral",
      "timestamp": "2025-04-08T16:47:31.403Z",
      "error": "Error funding ephemeral account",
      "details": "RecoverablePhaseError: Error funding ephemeral account\n    at new PhaseError (/Users/gianni/root/Pendulum/vortexRepo/vortex/api/src/api/errors/phase-error.ts:5:5)\n    at new RecoverablePhaseError (/Users/gianni/root/Pendulum/vortexRepo/vortex/api/src/api/errors/phase-error.ts:13:5)\n    at createRecoverableError (/Users/gianni/root/Pendulum/vortexRepo/vortex/api/src/api/services/phases/base-phase-handler.ts:68:16)\n    at <anonymous> (/Users/gianni/root/Pendulum/vortexRepo/vortex/api/src/api/services/phases/handlers/fund-ephemeral-handler.ts:60:37)\n    at processTicksAndRejections (native:7:39)",
      "recoverable": true
    }
  ],
  "createdAt": "2025-04-08T16:46:21.903Z",
  "updatedAt": "2025-04-08T16:46:21.903Z"
}
